{
    "contractName": "SimpleBank",
    "abi": [
        {
            "inputs": [],
            "stateMutability": "nonpayable",
            "type": "constructor"
        },
        {
            "anonymous": false,
            "inputs": [
                {
                    "indexed": false,
                    "internalType": "address",
                    "name": "_accountAddress",
                    "type": "address"
                },
                {
                    "indexed": false,
                    "internalType": "uint256",
                    "name": "_amount",
                    "type": "uint256"
                }
            ],
            "name": "LogDepositMade",
            "type": "event"
        },
        {
            "anonymous": false,
            "inputs": [
                {
                    "indexed": false,
                    "internalType": "address",
                    "name": "_accountAddress",
                    "type": "address"
                }
            ],
            "name": "LogEnrolled",
            "type": "event"
        },
        {
            "anonymous": false,
            "inputs": [
                {
                    "indexed": false,
                    "internalType": "address",
                    "name": "accountAddress",
                    "type": "address"
                },
                {
                    "indexed": false,
                    "internalType": "uint256",
                    "name": "withdrawAmount",
                    "type": "uint256"
                },
                {
                    "indexed": false,
                    "internalType": "uint256",
                    "name": "newBalance",
                    "type": "uint256"
                }
            ],
            "name": "LogWithdrawal",
            "type": "event"
        },
        {
            "stateMutability": "payable",
            "type": "fallback"
        },
        {
            "inputs": [],
            "name": "deposit",
            "outputs": [
                {
                    "internalType": "uint256",
                    "name": "",
                    "type": "uint256"
                }
            ],
            "stateMutability": "nonpayable",
            "type": "function"
        },
        {
            "inputs": [],
            "name": "enroll",
            "outputs": [
                {
                    "internalType": "bool",
                    "name": "",
                    "type": "bool"
                }
            ],
            "stateMutability": "nonpayable",
            "type": "function"
        },
        {
            "inputs": [
                {
                    "internalType": "address",
                    "name": "",
                    "type": "address"
                }
            ],
            "name": "enrolled",
            "outputs": [
                {
                    "internalType": "bool",
                    "name": "",
                    "type": "bool"
                }
            ],
            "stateMutability": "view",
            "type": "function"
        },
        {
            "inputs": [],
            "name": "getBalance",
            "outputs": [
                {
                    "internalType": "uint256",
                    "name": "",
                    "type": "uint256"
                }
            ],
            "stateMutability": "nonpayable",
            "type": "function"
        },
        {
            "inputs": [],
            "name": "owner",
            "outputs": [
                {
                    "internalType": "address",
                    "name": "",
                    "type": "address"
                }
            ],
            "stateMutability": "view",
            "type": "function"
        },
        {
            "inputs": [
                {
                    "internalType": "uint256",
                    "name": "withdrawAmount",
                    "type": "uint256"
                }
            ],
            "name": "withdraw",
            "outputs": [
                {
                    "internalType": "uint256",
                    "name": "",
                    "type": "uint256"
                }
            ],
            "stateMutability": "nonpayable",
            "type": "function"
        }
    ],
    "bytecode": "608060405234801561001057600080fd5b50600280546001600160a01b0319163317905561019d806100326000396000f3fe6080604052600436106100555760003560e01c806310eb0e0e1461005a57806312065fe0146100a15780632e1a7d4d146100c85780638da5cb5b146100f2578063d0e30db0146100a1578063e65f2a7e14610123575b600080fd5b34801561006657600080fd5b5061008d6004803603602081101561007d57600080fd5b50356001600160a01b0316610138565b604080519115158252519081900360200190f35b3480156100ad57600080fd5b506100b661014d565b60408051918252519081900360200190f35b3480156100d457600080fd5b506100b6600480360360208110156100eb57600080fd5b5035610152565b3480156100fe57600080fd5b50610107610158565b604080516001600160a01b039092168252519081900360200190f35b34801561012f57600080fd5b5061008d61014d565b60016020526000908152604090205460ff1681565b600090565b50600090565b6002546001600160a01b03168156fea264697066735822122092b94426bb09973986553eee87eed85af443e409aef6b7b93085471f6bd270b864736f6c63430007000033",
    "sourcePath": "/Users/radicle/Projects/Consyns-Eth/simple-bank-exercise-TheLady/contracts/SimpleBank.sol",
    "compiler": {
        "name": "solc",
        "version": "0.7.0+commit.9e61f92b"
    },
    "functionHashes": {
        "deposit()": "d0e30db0",
        "enroll()": "e65f2a7e",
        "enrolled(address)": "10eb0e0e",
        "getBalance()": "12065fe0",
        "owner()": "8da5cb5b",
        "withdraw(uint256)": "2e1a7d4d"
    },
    "gasEstimates": {
        "creation": {
            "codeDepositCost": "82600",
            "executionCost": "20964",
            "totalCost": "103564"
        },
        "external": {
            "": "190",
            "deposit()": "264",
            "enroll()": "292",
            "enrolled(address)": "1114",
            "getBalance()": "198",
            "owner()": "1081",
            "withdraw(uint256)": "264"
        }
    }
}